{
  "_format": "hh-sol-artifact-1",
  "contractName": "Komnou",
  "sourceName": "contracts/Komnou.sol",
  "abi": [
    {
      "inputs": [
        {
          "internalType": "string",
          "name": "baseURI",
          "type": "string"
        }
      ],
      "stateMutability": "nonpayable",
      "type": "constructor"
    },
    {
      "anonymous": false,
      "inputs": [
        {
          "indexed": true,
          "internalType": "address",
          "name": "owner",
          "type": "address"
        },
        {
          "indexed": true,
          "internalType": "address",
          "name": "approved",
          "type": "address"
        },
        {
          "indexed": true,
          "internalType": "uint256",
          "name": "tokenId",
          "type": "uint256"
        }
      ],
      "name": "Approval",
      "type": "event"
    },
    {
      "anonymous": false,
      "inputs": [
        {
          "indexed": true,
          "internalType": "address",
          "name": "owner",
          "type": "address"
        },
        {
          "indexed": true,
          "internalType": "address",
          "name": "operator",
          "type": "address"
        },
        {
          "indexed": false,
          "internalType": "bool",
          "name": "approved",
          "type": "bool"
        }
      ],
      "name": "ApprovalForAll",
      "type": "event"
    },
    {
      "anonymous": false,
      "inputs": [
        {
          "indexed": true,
          "internalType": "address",
          "name": "previousOwner",
          "type": "address"
        },
        {
          "indexed": true,
          "internalType": "address",
          "name": "newOwner",
          "type": "address"
        }
      ],
      "name": "OwnershipTransferred",
      "type": "event"
    },
    {
      "anonymous": false,
      "inputs": [
        {
          "indexed": true,
          "internalType": "address",
          "name": "from",
          "type": "address"
        },
        {
          "indexed": true,
          "internalType": "address",
          "name": "to",
          "type": "address"
        },
        {
          "indexed": true,
          "internalType": "uint256",
          "name": "tokenId",
          "type": "uint256"
        }
      ],
      "name": "Transfer",
      "type": "event"
    },
    {
      "stateMutability": "payable",
      "type": "fallback"
    },
    {
      "inputs": [],
      "name": "_paused",
      "outputs": [
        {
          "internalType": "bool",
          "name": "",
          "type": "bool"
        }
      ],
      "stateMutability": "view",
      "type": "function"
    },
    {
      "inputs": [],
      "name": "_price",
      "outputs": [
        {
          "internalType": "uint256",
          "name": "",
          "type": "uint256"
        }
      ],
      "stateMutability": "view",
      "type": "function"
    },
    {
      "inputs": [
        {
          "internalType": "address",
          "name": "to",
          "type": "address"
        },
        {
          "internalType": "uint256",
          "name": "tokenId",
          "type": "uint256"
        }
      ],
      "name": "approve",
      "outputs": [],
      "stateMutability": "nonpayable",
      "type": "function"
    },
    {
      "inputs": [
        {
          "internalType": "address",
          "name": "owner",
          "type": "address"
        }
      ],
      "name": "balanceOf",
      "outputs": [
        {
          "internalType": "uint256",
          "name": "",
          "type": "uint256"
        }
      ],
      "stateMutability": "view",
      "type": "function"
    },
    {
      "inputs": [
        {
          "internalType": "uint256",
          "name": "tokenId",
          "type": "uint256"
        }
      ],
      "name": "getApproved",
      "outputs": [
        {
          "internalType": "address",
          "name": "",
          "type": "address"
        }
      ],
      "stateMutability": "view",
      "type": "function"
    },
    {
      "inputs": [
        {
          "internalType": "address",
          "name": "",
          "type": "address"
        },
        {
          "internalType": "uint256",
          "name": "",
          "type": "uint256"
        }
      ],
      "name": "getNFTFromAddress",
      "outputs": [
        {
          "internalType": "uint256",
          "name": "",
          "type": "uint256"
        }
      ],
      "stateMutability": "view",
      "type": "function"
    },
    {
      "inputs": [
        {
          "internalType": "address",
          "name": "owner",
          "type": "address"
        },
        {
          "internalType": "address",
          "name": "operator",
          "type": "address"
        }
      ],
      "name": "isApprovedForAll",
      "outputs": [
        {
          "internalType": "bool",
          "name": "",
          "type": "bool"
        }
      ],
      "stateMutability": "view",
      "type": "function"
    },
    {
      "inputs": [],
      "name": "maxTokenIds",
      "outputs": [
        {
          "internalType": "uint256",
          "name": "",
          "type": "uint256"
        }
      ],
      "stateMutability": "view",
      "type": "function"
    },
    {
      "inputs": [],
      "name": "mint",
      "outputs": [],
      "stateMutability": "payable",
      "type": "function"
    },
    {
      "inputs": [],
      "name": "name",
      "outputs": [
        {
          "internalType": "string",
          "name": "",
          "type": "string"
        }
      ],
      "stateMutability": "view",
      "type": "function"
    },
    {
      "inputs": [],
      "name": "owner",
      "outputs": [
        {
          "internalType": "address",
          "name": "",
          "type": "address"
        }
      ],
      "stateMutability": "view",
      "type": "function"
    },
    {
      "inputs": [
        {
          "internalType": "uint256",
          "name": "tokenId",
          "type": "uint256"
        }
      ],
      "name": "ownerOf",
      "outputs": [
        {
          "internalType": "address",
          "name": "",
          "type": "address"
        }
      ],
      "stateMutability": "view",
      "type": "function"
    },
    {
      "inputs": [],
      "name": "renounceOwnership",
      "outputs": [],
      "stateMutability": "nonpayable",
      "type": "function"
    },
    {
      "inputs": [
        {
          "internalType": "address",
          "name": "from",
          "type": "address"
        },
        {
          "internalType": "address",
          "name": "to",
          "type": "address"
        },
        {
          "internalType": "uint256",
          "name": "tokenId",
          "type": "uint256"
        }
      ],
      "name": "safeTransferFrom",
      "outputs": [],
      "stateMutability": "nonpayable",
      "type": "function"
    },
    {
      "inputs": [
        {
          "internalType": "address",
          "name": "from",
          "type": "address"
        },
        {
          "internalType": "address",
          "name": "to",
          "type": "address"
        },
        {
          "internalType": "uint256",
          "name": "tokenId",
          "type": "uint256"
        },
        {
          "internalType": "bytes",
          "name": "data",
          "type": "bytes"
        }
      ],
      "name": "safeTransferFrom",
      "outputs": [],
      "stateMutability": "nonpayable",
      "type": "function"
    },
    {
      "inputs": [
        {
          "internalType": "address",
          "name": "operator",
          "type": "address"
        },
        {
          "internalType": "bool",
          "name": "approved",
          "type": "bool"
        }
      ],
      "name": "setApprovalForAll",
      "outputs": [],
      "stateMutability": "nonpayable",
      "type": "function"
    },
    {
      "inputs": [
        {
          "internalType": "bool",
          "name": "val",
          "type": "bool"
        }
      ],
      "name": "setPaused",
      "outputs": [],
      "stateMutability": "nonpayable",
      "type": "function"
    },
    {
      "inputs": [
        {
          "internalType": "bytes4",
          "name": "interfaceId",
          "type": "bytes4"
        }
      ],
      "name": "supportsInterface",
      "outputs": [
        {
          "internalType": "bool",
          "name": "",
          "type": "bool"
        }
      ],
      "stateMutability": "view",
      "type": "function"
    },
    {
      "inputs": [],
      "name": "symbol",
      "outputs": [
        {
          "internalType": "string",
          "name": "",
          "type": "string"
        }
      ],
      "stateMutability": "view",
      "type": "function"
    },
    {
      "inputs": [],
      "name": "tokenIds",
      "outputs": [
        {
          "internalType": "uint256",
          "name": "",
          "type": "uint256"
        }
      ],
      "stateMutability": "view",
      "type": "function"
    },
    {
      "inputs": [
        {
          "internalType": "uint256",
          "name": "tokenId",
          "type": "uint256"
        }
      ],
      "name": "tokenURI",
      "outputs": [
        {
          "internalType": "string",
          "name": "",
          "type": "string"
        }
      ],
      "stateMutability": "view",
      "type": "function"
    },
    {
      "inputs": [
        {
          "internalType": "address",
          "name": "from",
          "type": "address"
        },
        {
          "internalType": "address",
          "name": "to",
          "type": "address"
        },
        {
          "internalType": "uint256",
          "name": "tokenId",
          "type": "uint256"
        }
      ],
      "name": "transferFrom",
      "outputs": [],
      "stateMutability": "nonpayable",
      "type": "function"
    },
    {
      "inputs": [
        {
          "internalType": "address",
          "name": "newOwner",
          "type": "address"
        }
      ],
      "name": "transferOwnership",
      "outputs": [],
      "stateMutability": "nonpayable",
      "type": "function"
    },
    {
      "inputs": [],
      "name": "withdraw",
      "outputs": [],
      "stateMutability": "nonpayable",
      "type": "function"
    },
    {
      "stateMutability": "payable",
      "type": "receive"
    }
  ],
  "bytecode": "0x6080604052662386f26fc100006008556014600a553480156200002157600080fd5b506040516200388d3803806200388d833981810160405281019062000047919062000373565b6040518060400160405280600b81526020017f43727970746f20446576730000000000000000000000000000000000000000008152506040518060400160405280600281526020017f43440000000000000000000000000000000000000000000000000000000000008152508160009081620000c491906200060f565b508060019081620000d691906200060f565b505050620000f9620000ed6200011260201b60201c565b6200011a60201b60201c565b80600790816200010a91906200060f565b5050620006f6565b600033905090565b6000600660009054906101000a900473ffffffffffffffffffffffffffffffffffffffff16905081600660006101000a81548173ffffffffffffffffffffffffffffffffffffffff021916908373ffffffffffffffffffffffffffffffffffffffff1602179055508173ffffffffffffffffffffffffffffffffffffffff168173ffffffffffffffffffffffffffffffffffffffff167f8be0079c531659141344cd1fd0a4f28419497f9722a3daafe3b4186f6b6457e060405160405180910390a35050565b6000604051905090565b600080fd5b600080fd5b600080fd5b600080fd5b6000601f19601f8301169050919050565b7f4e487b7100000000000000000000000000000000000000000000000000000000600052604160045260246000fd5b6200024982620001fe565b810181811067ffffffffffffffff821117156200026b576200026a6200020f565b5b80604052505050565b600062000280620001e0565b90506200028e82826200023e565b919050565b600067ffffffffffffffff821115620002b157620002b06200020f565b5b620002bc82620001fe565b9050602081019050919050565b60005b83811015620002e9578082015181840152602081019050620002cc565b60008484015250505050565b60006200030c620003068462000293565b62000274565b9050828152602081018484840111156200032b576200032a620001f9565b5b62000338848285620002c9565b509392505050565b600082601f830112620003585762000357620001f4565b5b81516200036a848260208601620002f5565b91505092915050565b6000602082840312156200038c576200038b620001ea565b5b600082015167ffffffffffffffff811115620003ad57620003ac620001ef565b5b620003bb8482850162000340565b91505092915050565b600081519050919050565b7f4e487b7100000000000000000000000000000000000000000000000000000000600052602260045260246000fd5b600060028204905060018216806200041757607f821691505b6020821081036200042d576200042c620003cf565b5b50919050565b60008190508160005260206000209050919050565b60006020601f8301049050919050565b600082821b905092915050565b600060088302620004977fffffffffffffffffffffffffffffffffffffffffffffffffffffffffffffffff8262000458565b620004a3868362000458565b95508019841693508086168417925050509392505050565b6000819050919050565b6000819050919050565b6000620004f0620004ea620004e484620004bb565b620004c5565b620004bb565b9050919050565b6000819050919050565b6200050c83620004cf565b620005246200051b82620004f7565b84845462000465565b825550505050565b600090565b6200053b6200052c565b6200054881848462000501565b505050565b5b8181101562000570576200056460008262000531565b6001810190506200054e565b5050565b601f821115620005bf57620005898162000433565b620005948462000448565b81016020851015620005a4578190505b620005bc620005b38562000448565b8301826200054d565b50505b505050565b600082821c905092915050565b6000620005e460001984600802620005c4565b1980831691505092915050565b6000620005ff8383620005d1565b9150826002028217905092915050565b6200061a82620003c4565b67ffffffffffffffff8111156200063657620006356200020f565b5b620006428254620003fe565b6200064f82828562000574565b600060209050601f83116001811462000687576000841562000672578287015190505b6200067e8582620005f1565b865550620006ee565b601f198416620006978662000433565b60005b82811015620006c1578489015182556001820191506020850194506020810190506200069a565b86831015620006e15784890151620006dd601f891682620005d1565b8355505b6001600288020188555050505b505050505050565b61318780620007066000396000f3fe60806040526004361061014f5760003560e01c80636352211e116100b6578063a22cb4651161006f578063a22cb46514610455578063b88d4fde1461047e578063c87b56dd146104a7578063e985e9c5146104e4578063f2fde38b14610521578063fbc922c51461054a57610156565b80636352211e1461034357806370a0823114610380578063714cff56146103bd578063715018a6146103e85780638da5cb5b146103ff57806395d89b411461042a57610156565b806316c61ccc1161010857806316c61ccc14610259578063235b6ea11461028457806323b872dd146102af5780633ccfd60b146102d857806342842e0e146102ef5780635f7696211461031857610156565b806301ffc9a71461015857806306fdde0314610195578063081812fc146101c0578063095ea7b3146101fd5780631249c58b1461022657806316c38b3c1461023057610156565b3661015657005b005b34801561016457600080fd5b5061017f600480360381019061017a91906120a5565b610587565b60405161018c91906120ed565b60405180910390f35b3480156101a157600080fd5b506101aa610669565b6040516101b79190612198565b60405180910390f35b3480156101cc57600080fd5b506101e760048036038101906101e291906121f0565b6106fb565b6040516101f4919061225e565b60405180910390f35b34801561020957600080fd5b50610224600480360381019061021f91906122a5565b610741565b005b61022e610858565b005b34801561023c57600080fd5b5061025760048036038101906102529190612311565b6109c3565b005b34801561026557600080fd5b5061026e6109e8565b60405161027b91906120ed565b60405180910390f35b34801561029057600080fd5b506102996109fb565b6040516102a6919061234d565b60405180910390f35b3480156102bb57600080fd5b506102d660048036038101906102d19190612368565b610a01565b005b3480156102e457600080fd5b506102ed610a61565b005b3480156102fb57600080fd5b5061031660048036038101906103119190612368565b610b2b565b005b34801561032457600080fd5b5061032d610b4b565b60405161033a919061234d565b60405180910390f35b34801561034f57600080fd5b5061036a600480360381019061036591906121f0565b610b51565b604051610377919061225e565b60405180910390f35b34801561038c57600080fd5b506103a760048036038101906103a291906123bb565b610bd7565b6040516103b4919061234d565b60405180910390f35b3480156103c957600080fd5b506103d2610c8e565b6040516103df919061234d565b60405180910390f35b3480156103f457600080fd5b506103fd610c94565b005b34801561040b57600080fd5b50610414610ca8565b604051610421919061225e565b60405180910390f35b34801561043657600080fd5b5061043f610cd2565b60405161044c9190612198565b60405180910390f35b34801561046157600080fd5b5061047c600480360381019061047791906123e8565b610d64565b005b34801561048a57600080fd5b506104a560048036038101906104a0919061255d565b610d7a565b005b3480156104b357600080fd5b506104ce60048036038101906104c991906121f0565b610ddc565b6040516104db9190612198565b60405180910390f35b3480156104f057600080fd5b5061050b600480360381019061050691906125e0565b610e44565b60405161051891906120ed565b60405180910390f35b34801561052d57600080fd5b50610548600480360381019061054391906123bb565b610ed8565b005b34801561055657600080fd5b50610571600480360381019061056c91906122a5565b610f5b565b60405161057e919061234d565b60405180910390f35b60007f80ac58cd000000000000000000000000000000000000000000000000000000007bffffffffffffffffffffffffffffffffffffffffffffffffffffffff1916827bffffffffffffffffffffffffffffffffffffffffffffffffffffffff1916148061065257507f5b5e139f000000000000000000000000000000000000000000000000000000007bffffffffffffffffffffffffffffffffffffffffffffffffffffffff1916827bffffffffffffffffffffffffffffffffffffffffffffffffffffffff1916145b80610662575061066182610f8c565b5b9050919050565b6060600080546106789061264f565b80601f01602080910402602001604051908101604052809291908181526020018280546106a49061264f565b80156106f15780601f106106c6576101008083540402835291602001916106f1565b820191906000526020600020905b8154815290600101906020018083116106d457829003601f168201915b5050505050905090565b600061070682610ff6565b6004600083815260200190815260200160002060009054906101000a900473ffffffffffffffffffffffffffffffffffffffff169050919050565b600061074c82610b51565b90508073ffffffffffffffffffffffffffffffffffffffff168373ffffffffffffffffffffffffffffffffffffffff16036107bc576040517f08c379a00000000000000000000000000000000000000000000000000000000081526004016107b3906126f2565b60405180910390fd5b8073ffffffffffffffffffffffffffffffffffffffff166107db611041565b73ffffffffffffffffffffffffffffffffffffffff16148061080a575061080981610804611041565b610e44565b5b610849576040517f08c379a000000000000000000000000000000000000000000000000000000000815260040161084090612784565b60405180910390fd5b6108538383611049565b505050565b600960009054906101000a900460ff16156108a8576040517f08c379a000000000000000000000000000000000000000000000000000000000815260040161089f906127f0565b60405180910390fd5b600a54600b54106108ee576040517f08c379a00000000000000000000000000000000000000000000000000000000081526004016108e590612882565b60405180910390fd5b600854341015610933576040517f08c379a000000000000000000000000000000000000000000000000000000000815260040161092a906128ee565b60405180910390fd5b6001600b6000828254610946919061293d565b9250508190555061095933600b54611102565b600c60003373ffffffffffffffffffffffffffffffffffffffff1673ffffffffffffffffffffffffffffffffffffffff168152602001908152602001600020600b549080600181540180825580915050600190039060005260206000200160009091909190915055565b6109cb611120565b80600960006101000a81548160ff02191690831515021790555050565b600960009054906101000a900460ff1681565b60085481565b610a12610a0c611041565b8261119e565b610a51576040517f08c379a0000000000000000000000000000000000000000000000000000000008152600401610a48906129e3565b60405180910390fd5b610a5c838383611233565b505050565b610a69611120565b6000610a73610ca8565b9050600047905060008273ffffffffffffffffffffffffffffffffffffffff1682604051610aa090612a34565b60006040518083038185875af1925050503d8060008114610add576040519150601f19603f3d011682016040523d82523d6000602084013e610ae2565b606091505b5050905080610b26576040517f08c379a0000000000000000000000000000000000000000000000000000000008152600401610b1d90612a95565b60405180910390fd5b505050565b610b4683838360405180602001604052806000815250610d7a565b505050565b600a5481565b600080610b5d8361152c565b9050600073ffffffffffffffffffffffffffffffffffffffff168173ffffffffffffffffffffffffffffffffffffffff1603610bce576040517f08c379a0000000000000000000000000000000000000000000000000000000008152600401610bc590612b01565b60405180910390fd5b80915050919050565b60008073ffffffffffffffffffffffffffffffffffffffff168273ffffffffffffffffffffffffffffffffffffffff1603610c47576040517f08c379a0000000000000000000000000000000000000000000000000000000008152600401610c3e90612b93565b60405180910390fd5b600360008373ffffffffffffffffffffffffffffffffffffffff1673ffffffffffffffffffffffffffffffffffffffff168152602001908152602001600020549050919050565b600b5481565b610c9c611120565b610ca66000611569565b565b6000600660009054906101000a900473ffffffffffffffffffffffffffffffffffffffff16905090565b606060018054610ce19061264f565b80601f0160208091040260200160405190810160405280929190818152602001828054610d0d9061264f565b8015610d5a5780601f10610d2f57610100808354040283529160200191610d5a565b820191906000526020600020905b815481529060010190602001808311610d3d57829003601f168201915b5050505050905090565b610d76610d6f611041565b838361162f565b5050565b610d8b610d85611041565b8361119e565b610dca576040517f08c379a0000000000000000000000000000000000000000000000000000000008152600401610dc1906129e3565b60405180910390fd5b610dd68484848461179b565b50505050565b6060610de782610ff6565b6000610df16117f7565b90506000815111610e115760405180602001604052806000815250610e3c565b80610e1b84611889565b604051602001610e2c929190612bef565b6040516020818303038152906040525b915050919050565b6000600560008473ffffffffffffffffffffffffffffffffffffffff1673ffffffffffffffffffffffffffffffffffffffff16815260200190815260200160002060008373ffffffffffffffffffffffffffffffffffffffff1673ffffffffffffffffffffffffffffffffffffffff16815260200190815260200160002060009054906101000a900460ff16905092915050565b610ee0611120565b600073ffffffffffffffffffffffffffffffffffffffff168173ffffffffffffffffffffffffffffffffffffffff1603610f4f576040517f08c379a0000000000000000000000000000000000000000000000000000000008152600401610f4690612c85565b60405180910390fd5b610f5881611569565b50565b600c6020528160005260406000208181548110610f7757600080fd5b90600052602060002001600091509150505481565b60007f01ffc9a7000000000000000000000000000000000000000000000000000000007bffffffffffffffffffffffffffffffffffffffffffffffffffffffff1916827bffffffffffffffffffffffffffffffffffffffffffffffffffffffff1916149050919050565b610fff81611957565b61103e576040517f08c379a000000000000000000000000000000000000000000000000000000000815260040161103590612b01565b60405180910390fd5b50565b600033905090565b816004600083815260200190815260200160002060006101000a81548173ffffffffffffffffffffffffffffffffffffffff021916908373ffffffffffffffffffffffffffffffffffffffff160217905550808273ffffffffffffffffffffffffffffffffffffffff166110bc83610b51565b73ffffffffffffffffffffffffffffffffffffffff167f8c5be1e5ebec7d5bd14f71427d1e84f3dd0314c0f7b2291e5b200ac8c7c3b92560405160405180910390a45050565b61111c828260405180602001604052806000815250611998565b5050565b611128611041565b73ffffffffffffffffffffffffffffffffffffffff16611146610ca8565b73ffffffffffffffffffffffffffffffffffffffff161461119c576040517f08c379a000000000000000000000000000000000000000000000000000000000815260040161119390612cf1565b60405180910390fd5b565b6000806111aa83610b51565b90508073ffffffffffffffffffffffffffffffffffffffff168473ffffffffffffffffffffffffffffffffffffffff1614806111ec57506111eb8185610e44565b5b8061122a57508373ffffffffffffffffffffffffffffffffffffffff16611212846106fb565b73ffffffffffffffffffffffffffffffffffffffff16145b91505092915050565b8273ffffffffffffffffffffffffffffffffffffffff1661125382610b51565b73ffffffffffffffffffffffffffffffffffffffff16146112a9576040517f08c379a00000000000000000000000000000000000000000000000000000000081526004016112a090612d83565b60405180910390fd5b600073ffffffffffffffffffffffffffffffffffffffff168273ffffffffffffffffffffffffffffffffffffffff1603611318576040517f08c379a000000000000000000000000000000000000000000000000000000000815260040161130f90612e15565b60405180910390fd5b61132583838360016119f3565b8273ffffffffffffffffffffffffffffffffffffffff1661134582610b51565b73ffffffffffffffffffffffffffffffffffffffff161461139b576040517f08c379a000000000000000000000000000000000000000000000000000000000815260040161139290612d83565b60405180910390fd5b6004600082815260200190815260200160002060006101000a81549073ffffffffffffffffffffffffffffffffffffffff02191690556001600360008573ffffffffffffffffffffffffffffffffffffffff1673ffffffffffffffffffffffffffffffffffffffff168152602001908152602001600020600082825403925050819055506001600360008473ffffffffffffffffffffffffffffffffffffffff1673ffffffffffffffffffffffffffffffffffffffff16815260200190815260200160002060008282540192505081905550816002600083815260200190815260200160002060006101000a81548173ffffffffffffffffffffffffffffffffffffffff021916908373ffffffffffffffffffffffffffffffffffffffff160217905550808273ffffffffffffffffffffffffffffffffffffffff168473ffffffffffffffffffffffffffffffffffffffff167fddf252ad1be2c89b69c2b068fc378daa952ba7f163c4a11628f55a4df523b3ef60405160405180910390a46115278383836001611b19565b505050565b60006002600083815260200190815260200160002060009054906101000a900473ffffffffffffffffffffffffffffffffffffffff169050919050565b6000600660009054906101000a900473ffffffffffffffffffffffffffffffffffffffff16905081600660006101000a81548173ffffffffffffffffffffffffffffffffffffffff021916908373ffffffffffffffffffffffffffffffffffffffff1602179055508173ffffffffffffffffffffffffffffffffffffffff168173ffffffffffffffffffffffffffffffffffffffff167f8be0079c531659141344cd1fd0a4f28419497f9722a3daafe3b4186f6b6457e060405160405180910390a35050565b8173ffffffffffffffffffffffffffffffffffffffff168373ffffffffffffffffffffffffffffffffffffffff160361169d576040517f08c379a000000000000000000000000000000000000000000000000000000000815260040161169490612e81565b60405180910390fd5b80600560008573ffffffffffffffffffffffffffffffffffffffff1673ffffffffffffffffffffffffffffffffffffffff16815260200190815260200160002060008473ffffffffffffffffffffffffffffffffffffffff1673ffffffffffffffffffffffffffffffffffffffff16815260200190815260200160002060006101000a81548160ff0219169083151502179055508173ffffffffffffffffffffffffffffffffffffffff168373ffffffffffffffffffffffffffffffffffffffff167f17307eab39ab6107e8899845ad3d59bd9653f200f220920489ca2b5937696c318360405161178e91906120ed565b60405180910390a3505050565b6117a6848484611233565b6117b284848484611b1f565b6117f1576040517f08c379a00000000000000000000000000000000000000000000000000000000081526004016117e890612f13565b60405180910390fd5b50505050565b6060600780546118069061264f565b80601f01602080910402602001604051908101604052809291908181526020018280546118329061264f565b801561187f5780601f106118545761010080835404028352916020019161187f565b820191906000526020600020905b81548152906001019060200180831161186257829003601f168201915b5050505050905090565b60606000600161189884611ca6565b01905060008167ffffffffffffffff8111156118b7576118b6612432565b5b6040519080825280601f01601f1916602001820160405280156118e95781602001600182028036833780820191505090505b509050600082602001820190505b60011561194c578080600190039150507f3031323334353637383961626364656600000000000000000000000000000000600a86061a8153600a85816119405761193f612f33565b5b049450600085036118f7575b819350505050919050565b60008073ffffffffffffffffffffffffffffffffffffffff166119798361152c565b73ffffffffffffffffffffffffffffffffffffffff1614159050919050565b6119a28383611df9565b6119af6000848484611b1f565b6119ee576040517f08c379a00000000000000000000000000000000000000000000000000000000081526004016119e590612f13565b60405180910390fd5b505050565b6001811115611b1357600073ffffffffffffffffffffffffffffffffffffffff168473ffffffffffffffffffffffffffffffffffffffff1614611a875780600360008673ffffffffffffffffffffffffffffffffffffffff1673ffffffffffffffffffffffffffffffffffffffff1681526020019081526020016000206000828254611a7f9190612f62565b925050819055505b600073ffffffffffffffffffffffffffffffffffffffff168373ffffffffffffffffffffffffffffffffffffffff1614611b125780600360008573ffffffffffffffffffffffffffffffffffffffff1673ffffffffffffffffffffffffffffffffffffffff1681526020019081526020016000206000828254611b0a919061293d565b925050819055505b5b50505050565b50505050565b6000611b408473ffffffffffffffffffffffffffffffffffffffff16612016565b15611c99578373ffffffffffffffffffffffffffffffffffffffff1663150b7a02611b69611041565b8786866040518563ffffffff1660e01b8152600401611b8b9493929190612feb565b6020604051808303816000875af1925050508015611bc757506040513d601f19601f82011682018060405250810190611bc4919061304c565b60015b611c49573d8060008114611bf7576040519150601f19603f3d011682016040523d82523d6000602084013e611bfc565b606091505b506000815103611c41576040517f08c379a0000000000000000000000000000000000000000000000000000000008152600401611c3890612f13565b60405180910390fd5b805181602001fd5b63150b7a0260e01b7bffffffffffffffffffffffffffffffffffffffffffffffffffffffff1916817bffffffffffffffffffffffffffffffffffffffffffffffffffffffff191614915050611c9e565b600190505b949350505050565b600080600090507a184f03e93ff9f4daa797ed6e38ed64bf6a1f0100000000000000008310611d04577a184f03e93ff9f4daa797ed6e38ed64bf6a1f0100000000000000008381611cfa57611cf9612f33565b5b0492506040810190505b6d04ee2d6d415b85acef81000000008310611d41576d04ee2d6d415b85acef81000000008381611d3757611d36612f33565b5b0492506020810190505b662386f26fc100008310611d7057662386f26fc100008381611d6657611d65612f33565b5b0492506010810190505b6305f5e1008310611d99576305f5e1008381611d8f57611d8e612f33565b5b0492506008810190505b6127108310611dbe576127108381611db457611db3612f33565b5b0492506004810190505b60648310611de15760648381611dd757611dd6612f33565b5b0492506002810190505b600a8310611df0576001810190505b80915050919050565b600073ffffffffffffffffffffffffffffffffffffffff168273ffffffffffffffffffffffffffffffffffffffff1603611e68576040517f08c379a0000000000000000000000000000000000000000000000000000000008152600401611e5f906130c5565b60405180910390fd5b611e7181611957565b15611eb1576040517f08c379a0000000000000000000000000000000000000000000000000000000008152600401611ea890613131565b60405180910390fd5b611ebf6000838360016119f3565b611ec881611957565b15611f08576040517f08c379a0000000000000000000000000000000000000000000000000000000008152600401611eff90613131565b60405180910390fd5b6001600360008473ffffffffffffffffffffffffffffffffffffffff1673ffffffffffffffffffffffffffffffffffffffff16815260200190815260200160002060008282540192505081905550816002600083815260200190815260200160002060006101000a81548173ffffffffffffffffffffffffffffffffffffffff021916908373ffffffffffffffffffffffffffffffffffffffff160217905550808273ffffffffffffffffffffffffffffffffffffffff16600073ffffffffffffffffffffffffffffffffffffffff167fddf252ad1be2c89b69c2b068fc378daa952ba7f163c4a11628f55a4df523b3ef60405160405180910390a4612012600083836001611b19565b5050565b6000808273ffffffffffffffffffffffffffffffffffffffff163b119050919050565b6000604051905090565b600080fd5b600080fd5b60007fffffffff0000000000000000000000000000000000000000000000000000000082169050919050565b6120828161204d565b811461208d57600080fd5b50565b60008135905061209f81612079565b92915050565b6000602082840312156120bb576120ba612043565b5b60006120c984828501612090565b91505092915050565b60008115159050919050565b6120e7816120d2565b82525050565b600060208201905061210260008301846120de565b92915050565b600081519050919050565b600082825260208201905092915050565b60005b83811015612142578082015181840152602081019050612127565b60008484015250505050565b6000601f19601f8301169050919050565b600061216a82612108565b6121748185612113565b9350612184818560208601612124565b61218d8161214e565b840191505092915050565b600060208201905081810360008301526121b2818461215f565b905092915050565b6000819050919050565b6121cd816121ba565b81146121d857600080fd5b50565b6000813590506121ea816121c4565b92915050565b60006020828403121561220657612205612043565b5b6000612214848285016121db565b91505092915050565b600073ffffffffffffffffffffffffffffffffffffffff82169050919050565b60006122488261221d565b9050919050565b6122588161223d565b82525050565b6000602082019050612273600083018461224f565b92915050565b6122828161223d565b811461228d57600080fd5b50565b60008135905061229f81612279565b92915050565b600080604083850312156122bc576122bb612043565b5b60006122ca85828601612290565b92505060206122db858286016121db565b9150509250929050565b6122ee816120d2565b81146122f957600080fd5b50565b60008135905061230b816122e5565b92915050565b60006020828403121561232757612326612043565b5b6000612335848285016122fc565b91505092915050565b612347816121ba565b82525050565b6000602082019050612362600083018461233e565b92915050565b60008060006060848603121561238157612380612043565b5b600061238f86828701612290565b93505060206123a086828701612290565b92505060406123b1868287016121db565b9150509250925092565b6000602082840312156123d1576123d0612043565b5b60006123df84828501612290565b91505092915050565b600080604083850312156123ff576123fe612043565b5b600061240d85828601612290565b925050602061241e858286016122fc565b9150509250929050565b600080fd5b600080fd5b7f4e487b7100000000000000000000000000000000000000000000000000000000600052604160045260246000fd5b61246a8261214e565b810181811067ffffffffffffffff8211171561248957612488612432565b5b80604052505050565b600061249c612039565b90506124a88282612461565b919050565b600067ffffffffffffffff8211156124c8576124c7612432565b5b6124d18261214e565b9050602081019050919050565b82818337600083830152505050565b60006125006124fb846124ad565b612492565b90508281526020810184848401111561251c5761251b61242d565b5b6125278482856124de565b509392505050565b600082601f83011261254457612543612428565b5b81356125548482602086016124ed565b91505092915050565b6000806000806080858703121561257757612576612043565b5b600061258587828801612290565b945050602061259687828801612290565b93505060406125a7878288016121db565b925050606085013567ffffffffffffffff8111156125c8576125c7612048565b5b6125d48782880161252f565b91505092959194509250565b600080604083850312156125f7576125f6612043565b5b600061260585828601612290565b925050602061261685828601612290565b9150509250929050565b7f4e487b7100000000000000000000000000000000000000000000000000000000600052602260045260246000fd5b6000600282049050600182168061266757607f821691505b60208210810361267a57612679612620565b5b50919050565b7f4552433732313a20617070726f76616c20746f2063757272656e74206f776e6560008201527f7200000000000000000000000000000000000000000000000000000000000000602082015250565b60006126dc602183612113565b91506126e782612680565b604082019050919050565b6000602082019050818103600083015261270b816126cf565b9050919050565b7f4552433732313a20617070726f76652063616c6c6572206973206e6f7420746f60008201527f6b656e206f776e6572206f7220617070726f76656420666f7220616c6c000000602082015250565b600061276e603d83612113565b915061277982612712565b604082019050919050565b6000602082019050818103600083015261279d81612761565b9050919050565b7f436f6e74726163742063757272656e746c792070617573656400000000000000600082015250565b60006127da601983612113565b91506127e5826127a4565b602082019050919050565b60006020820190508181036000830152612809816127cd565b9050919050565b7f457863656564206d6178696d756d2043727970746f204465767320737570706c60008201527f7900000000000000000000000000000000000000000000000000000000000000602082015250565b600061286c602183612113565b915061287782612810565b604082019050919050565b6000602082019050818103600083015261289b8161285f565b9050919050565b7f45746865722073656e74206973206e6f7420636f727265637400000000000000600082015250565b60006128d8601983612113565b91506128e3826128a2565b602082019050919050565b60006020820190508181036000830152612907816128cb565b9050919050565b7f4e487b7100000000000000000000000000000000000000000000000000000000600052601160045260246000fd5b6000612948826121ba565b9150612953836121ba565b925082820190508082111561296b5761296a61290e565b5b92915050565b7f4552433732313a2063616c6c6572206973206e6f7420746f6b656e206f776e6560008201527f72206f7220617070726f76656400000000000000000000000000000000000000602082015250565b60006129cd602d83612113565b91506129d882612971565b604082019050919050565b600060208201905081810360008301526129fc816129c0565b9050919050565b600081905092915050565b50565b6000612a1e600083612a03565b9150612a2982612a0e565b600082019050919050565b6000612a3f82612a11565b9150819050919050565b7f4661696c656420746f2073656e64204574686572000000000000000000000000600082015250565b6000612a7f601483612113565b9150612a8a82612a49565b602082019050919050565b60006020820190508181036000830152612aae81612a72565b9050919050565b7f4552433732313a20696e76616c696420746f6b656e2049440000000000000000600082015250565b6000612aeb601883612113565b9150612af682612ab5565b602082019050919050565b60006020820190508181036000830152612b1a81612ade565b9050919050565b7f4552433732313a2061646472657373207a65726f206973206e6f74206120766160008201527f6c6964206f776e65720000000000000000000000000000000000000000000000602082015250565b6000612b7d602983612113565b9150612b8882612b21565b604082019050919050565b60006020820190508181036000830152612bac81612b70565b9050919050565b600081905092915050565b6000612bc982612108565b612bd38185612bb3565b9350612be3818560208601612124565b80840191505092915050565b6000612bfb8285612bbe565b9150612c078284612bbe565b91508190509392505050565b7f4f776e61626c653a206e6577206f776e657220697320746865207a65726f206160008201527f6464726573730000000000000000000000000000000000000000000000000000602082015250565b6000612c6f602683612113565b9150612c7a82612c13565b604082019050919050565b60006020820190508181036000830152612c9e81612c62565b9050919050565b7f4f776e61626c653a2063616c6c6572206973206e6f7420746865206f776e6572600082015250565b6000612cdb602083612113565b9150612ce682612ca5565b602082019050919050565b60006020820190508181036000830152612d0a81612cce565b9050919050565b7f4552433732313a207472616e736665722066726f6d20696e636f72726563742060008201527f6f776e6572000000000000000000000000000000000000000000000000000000602082015250565b6000612d6d602583612113565b9150612d7882612d11565b604082019050919050565b60006020820190508181036000830152612d9c81612d60565b9050919050565b7f4552433732313a207472616e7366657220746f20746865207a65726f2061646460008201527f7265737300000000000000000000000000000000000000000000000000000000602082015250565b6000612dff602483612113565b9150612e0a82612da3565b604082019050919050565b60006020820190508181036000830152612e2e81612df2565b9050919050565b7f4552433732313a20617070726f766520746f2063616c6c657200000000000000600082015250565b6000612e6b601983612113565b9150612e7682612e35565b602082019050919050565b60006020820190508181036000830152612e9a81612e5e565b9050919050565b7f4552433732313a207472616e7366657220746f206e6f6e20455243373231526560008201527f63656976657220696d706c656d656e7465720000000000000000000000000000602082015250565b6000612efd603283612113565b9150612f0882612ea1565b604082019050919050565b60006020820190508181036000830152612f2c81612ef0565b9050919050565b7f4e487b7100000000000000000000000000000000000000000000000000000000600052601260045260246000fd5b6000612f6d826121ba565b9150612f78836121ba565b9250828203905081811115612f9057612f8f61290e565b5b92915050565b600081519050919050565b600082825260208201905092915050565b6000612fbd82612f96565b612fc78185612fa1565b9350612fd7818560208601612124565b612fe08161214e565b840191505092915050565b6000608082019050613000600083018761224f565b61300d602083018661224f565b61301a604083018561233e565b818103606083015261302c8184612fb2565b905095945050505050565b60008151905061304681612079565b92915050565b60006020828403121561306257613061612043565b5b600061307084828501613037565b91505092915050565b7f4552433732313a206d696e7420746f20746865207a65726f2061646472657373600082015250565b60006130af602083612113565b91506130ba82613079565b602082019050919050565b600060208201905081810360008301526130de816130a2565b9050919050565b7f4552433732313a20746f6b656e20616c7265616479206d696e74656400000000600082015250565b600061311b601c83612113565b9150613126826130e5565b602082019050919050565b6000602082019050818103600083015261314a8161310e565b905091905056fea2646970667358221220d18b2926a2367cc2345fe429c795b16ea17ebd0d3d1724a6003612f6b8a7cc5864736f6c63430008110033",
  "linkReferences": {},
  "deployedLinkReferences": {}
}